{
  "_format": "hh-sol-artifact-1",
  "contractName": "Wolon",
  "sourceName": "contracts/Wolon.sol",
  "abi": [
    {
      "inputs": [],
      "stateMutability": "payable",
      "type": "constructor"
    },
    {
      "anonymous": false,
      "inputs": [
        {
          "indexed": true,
          "internalType": "address",
          "name": "owner",
          "type": "address"
        },
        {
          "indexed": true,
          "internalType": "address",
          "name": "approved",
          "type": "address"
        },
        {
          "indexed": true,
          "internalType": "uint256",
          "name": "tokenId",
          "type": "uint256"
        }
      ],
      "name": "Approval",
      "type": "event"
    },
    {
      "anonymous": false,
      "inputs": [
        {
          "indexed": true,
          "internalType": "address",
          "name": "owner",
          "type": "address"
        },
        {
          "indexed": true,
          "internalType": "address",
          "name": "operator",
          "type": "address"
        },
        {
          "indexed": false,
          "internalType": "bool",
          "name": "approved",
          "type": "bool"
        }
      ],
      "name": "ApprovalForAll",
      "type": "event"
    },
    {
      "anonymous": false,
      "inputs": [
        {
          "indexed": false,
          "internalType": "address",
          "name": "sender",
          "type": "address"
        },
        {
          "indexed": false,
          "internalType": "uint256",
          "name": "tokenId",
          "type": "uint256"
        }
      ],
      "name": "MembershipNFTMinted",
      "type": "event"
    },
    {
      "anonymous": false,
      "inputs": [
        {
          "indexed": true,
          "internalType": "address",
          "name": "from",
          "type": "address"
        },
        {
          "indexed": true,
          "internalType": "address",
          "name": "to",
          "type": "address"
        },
        {
          "indexed": true,
          "internalType": "uint256",
          "name": "tokenId",
          "type": "uint256"
        }
      ],
      "name": "Transfer",
      "type": "event"
    },
    {
      "inputs": [
        {
          "internalType": "string",
          "name": "_helpAd",
          "type": "string"
        }
      ],
      "name": "addHelpAd",
      "outputs": [],
      "stateMutability": "nonpayable",
      "type": "function"
    },
    {
      "inputs": [
        {
          "internalType": "address",
          "name": "to",
          "type": "address"
        },
        {
          "internalType": "uint256",
          "name": "tokenId",
          "type": "uint256"
        }
      ],
      "name": "approve",
      "outputs": [],
      "stateMutability": "nonpayable",
      "type": "function"
    },
    {
      "inputs": [
        {
          "internalType": "address",
          "name": "owner",
          "type": "address"
        }
      ],
      "name": "balanceOf",
      "outputs": [
        {
          "internalType": "uint256",
          "name": "",
          "type": "uint256"
        }
      ],
      "stateMutability": "view",
      "type": "function"
    },
    {
      "inputs": [],
      "name": "checkIfUserHasNFT",
      "outputs": [
        {
          "components": [
            {
              "internalType": "uint256",
              "name": "helperTokens",
              "type": "uint256"
            },
            {
              "internalType": "uint256",
              "name": "foundHelp",
              "type": "uint256"
            },
            {
              "internalType": "uint256",
              "name": "totalSupported",
              "type": "uint256"
            }
          ],
          "internalType": "struct Wolon.MemberAttributes",
          "name": "",
          "type": "tuple"
        }
      ],
      "stateMutability": "view",
      "type": "function"
    },
    {
      "inputs": [],
      "name": "getAds",
      "outputs": [
        {
          "internalType": "string[]",
          "name": "",
          "type": "string[]"
        }
      ],
      "stateMutability": "view",
      "type": "function"
    },
    {
      "inputs": [
        {
          "internalType": "uint256",
          "name": "tokenId",
          "type": "uint256"
        }
      ],
      "name": "getApproved",
      "outputs": [
        {
          "internalType": "address",
          "name": "",
          "type": "address"
        }
      ],
      "stateMutability": "view",
      "type": "function"
    },
    {
      "inputs": [],
      "name": "getBudgetBalance",
      "outputs": [
        {
          "internalType": "uint256",
          "name": "",
          "type": "uint256"
        }
      ],
      "stateMutability": "view",
      "type": "function"
    },
    {
      "inputs": [],
      "name": "getUserAd",
      "outputs": [
        {
          "internalType": "string",
          "name": "",
          "type": "string"
        }
      ],
      "stateMutability": "view",
      "type": "function"
    },
    {
      "inputs": [
        {
          "internalType": "address",
          "name": "_helper",
          "type": "address"
        }
      ],
      "name": "helpFound",
      "outputs": [],
      "stateMutability": "nonpayable",
      "type": "function"
    },
    {
      "inputs": [
        {
          "internalType": "address",
          "name": "owner",
          "type": "address"
        },
        {
          "internalType": "address",
          "name": "operator",
          "type": "address"
        }
      ],
      "name": "isApprovedForAll",
      "outputs": [
        {
          "internalType": "bool",
          "name": "",
          "type": "bool"
        }
      ],
      "stateMutability": "view",
      "type": "function"
    },
    {
      "inputs": [],
      "name": "mintMembershipNFT",
      "outputs": [],
      "stateMutability": "nonpayable",
      "type": "function"
    },
    {
      "inputs": [],
      "name": "name",
      "outputs": [
        {
          "internalType": "string",
          "name": "",
          "type": "string"
        }
      ],
      "stateMutability": "view",
      "type": "function"
    },
    {
      "inputs": [
        {
          "internalType": "uint256",
          "name": "",
          "type": "uint256"
        }
      ],
      "name": "nftHolderAttributes",
      "outputs": [
        {
          "internalType": "uint256",
          "name": "helperTokens",
          "type": "uint256"
        },
        {
          "internalType": "uint256",
          "name": "foundHelp",
          "type": "uint256"
        },
        {
          "internalType": "uint256",
          "name": "totalSupported",
          "type": "uint256"
        }
      ],
      "stateMutability": "view",
      "type": "function"
    },
    {
      "inputs": [
        {
          "internalType": "address",
          "name": "",
          "type": "address"
        }
      ],
      "name": "nftHolders",
      "outputs": [
        {
          "internalType": "uint256",
          "name": "",
          "type": "uint256"
        }
      ],
      "stateMutability": "view",
      "type": "function"
    },
    {
      "inputs": [
        {
          "internalType": "uint256",
          "name": "tokenId",
          "type": "uint256"
        }
      ],
      "name": "ownerOf",
      "outputs": [
        {
          "internalType": "address",
          "name": "",
          "type": "address"
        }
      ],
      "stateMutability": "view",
      "type": "function"
    },
    {
      "inputs": [],
      "name": "paymentVoting",
      "outputs": [
        {
          "internalType": "uint256",
          "name": "zero",
          "type": "uint256"
        },
        {
          "internalType": "uint256",
          "name": "twentyfive",
          "type": "uint256"
        },
        {
          "internalType": "uint256",
          "name": "fifty",
          "type": "uint256"
        },
        {
          "internalType": "uint256",
          "name": "seventyfive",
          "type": "uint256"
        },
        {
          "internalType": "uint256",
          "name": "hundred",
          "type": "uint256"
        }
      ],
      "stateMutability": "view",
      "type": "function"
    },
    {
      "inputs": [],
      "name": "removeUserAd",
      "outputs": [],
      "stateMutability": "nonpayable",
      "type": "function"
    },
    {
      "inputs": [
        {
          "internalType": "address",
          "name": "from",
          "type": "address"
        },
        {
          "internalType": "address",
          "name": "to",
          "type": "address"
        },
        {
          "internalType": "uint256",
          "name": "tokenId",
          "type": "uint256"
        }
      ],
      "name": "safeTransferFrom",
      "outputs": [],
      "stateMutability": "nonpayable",
      "type": "function"
    },
    {
      "inputs": [
        {
          "internalType": "address",
          "name": "from",
          "type": "address"
        },
        {
          "internalType": "address",
          "name": "to",
          "type": "address"
        },
        {
          "internalType": "uint256",
          "name": "tokenId",
          "type": "uint256"
        },
        {
          "internalType": "bytes",
          "name": "_data",
          "type": "bytes"
        }
      ],
      "name": "safeTransferFrom",
      "outputs": [],
      "stateMutability": "nonpayable",
      "type": "function"
    },
    {
      "inputs": [
        {
          "internalType": "address",
          "name": "operator",
          "type": "address"
        },
        {
          "internalType": "bool",
          "name": "approved",
          "type": "bool"
        }
      ],
      "name": "setApprovalForAll",
      "outputs": [],
      "stateMutability": "nonpayable",
      "type": "function"
    },
    {
      "inputs": [
        {
          "internalType": "bytes4",
          "name": "interfaceId",
          "type": "bytes4"
        }
      ],
      "name": "supportsInterface",
      "outputs": [
        {
          "internalType": "bool",
          "name": "",
          "type": "bool"
        }
      ],
      "stateMutability": "view",
      "type": "function"
    },
    {
      "inputs": [],
      "name": "symbol",
      "outputs": [
        {
          "internalType": "string",
          "name": "",
          "type": "string"
        }
      ],
      "stateMutability": "view",
      "type": "function"
    },
    {
      "inputs": [
        {
          "internalType": "uint256",
          "name": "_tokenId",
          "type": "uint256"
        }
      ],
      "name": "tokenURI",
      "outputs": [
        {
          "internalType": "string",
          "name": "",
          "type": "string"
        }
      ],
      "stateMutability": "view",
      "type": "function"
    },
    {
      "inputs": [
        {
          "internalType": "address",
          "name": "from",
          "type": "address"
        },
        {
          "internalType": "address",
          "name": "to",
          "type": "address"
        },
        {
          "internalType": "uint256",
          "name": "tokenId",
          "type": "uint256"
        }
      ],
      "name": "transferFrom",
      "outputs": [],
      "stateMutability": "nonpayable",
      "type": "function"
    },
    {
      "inputs": [
        {
          "internalType": "uint256",
          "name": "_vote",
          "type": "uint256"
        }
      ],
      "name": "voteForPayment",
      "outputs": [],
      "stateMutability": "nonpayable",
      "type": "function"
    }
  ],
  "bytecode": "0x60806040526040518060400160405280600881526020017f576f6c6f6e332e300000000000000000000000000000000000000000000000008152506040518060400160405280600381526020017f574c4e0000000000000000000000000000000000000000000000000000000000815250816000908051906020019062000088929190620000d7565b508060019080519060200190620000a1929190620000d7565b505050620000bb6006620000c160201b620020ce1760201c565b620001ec565b6001816000016000828254019250508190555050565b828054620000e59062000187565b90600052602060002090601f01602090048101928262000109576000855562000155565b82601f106200012457805160ff191683800117855562000155565b8280016001018555821562000155579182015b828111156200015457825182559160200191906001019062000137565b5b50905062000164919062000168565b5090565b5b808211156200018357600081600090555060010162000169565b5090565b60006002820490506001821680620001a057607f821691505b60208210811415620001b757620001b6620001bd565b5b50919050565b7f4e487b7100000000000000000000000000000000000000000000000000000000600052602260045260246000fd5b614eed80620001fc6000396000f3fe608060405234801561001057600080fd5b50600436106101735760003560e01c80637498d280116100de578063b1a0246b11610097578063c87b56dd11610071578063c87b56dd14610428578063c8cf27f414610458578063d466e3ec14610476578063e985e9c51461049457610173565b8063b1a0246b146103e4578063b88d4fde14610402578063bd47e2871461041e57610173565b80637498d280146103225780637ae9361c1461032c5780637df124a11461034857806395d89b411461037857806398da4c9514610396578063a22cb465146103c857610173565b80631c1d34d2116101305780631c1d34d21461024c57806323b872dd14610268578063362b39bf1461028457806342842e0e146102a65780636352211e146102c257806370a08231146102f257610173565b806301ffc9a71461017857806306fdde03146101a8578063081812fc146101c65780630955ae99146101f6578063095ea7b314610214578063101498a314610230575b600080fd5b610192600480360381019061018d9190613616565b6104c4565b60405161019f9190613e77565b60405180910390f35b6101b06105a6565b6040516101bd9190613e92565b60405180910390f35b6101e060048036038101906101db91906136ea565b610638565b6040516101ed9190613dc5565b60405180910390f35b6101fe6106bd565b60405161020b9190613e55565b60405180910390f35b61022e600480360381019061022991906135da565b610796565b005b61024a600480360381019061024591906136ea565b6108ae565b005b61026660048036038101906102619190613446565b610b4d565b005b610282600480360381019061027d91906134d4565b610fcf565b005b61028c61102f565b60405161029d95949392919061426c565b60405180910390f35b6102c060048036038101906102bb91906134d4565b611053565b005b6102dc60048036038101906102d791906136ea565b611073565b6040516102e99190613dc5565b60405180910390f35b61030c60048036038101906103079190613446565b611125565b604051610319919061421a565b60405180910390f35b61032a6111dd565b005b61034660048036038101906103419190613668565b611353565b005b610362600480360381019061035d9190613446565b611810565b60405161036f919061421a565b60405180910390f35b610380611828565b60405161038d9190613e92565b60405180910390f35b6103b060048036038101906103ab91906136ea565b6118ba565b6040516103bf93929190614235565b60405180910390f35b6103e260048036038101906103dd919061359e565b6118e4565b005b6103ec6118fa565b6040516103f9919061421a565b60405180910390f35b61041c60048036038101906104179190613523565b611902565b005b610426611964565b005b610442600480360381019061043d91906136ea565b611d52565b60405161044f9190613e92565b60405180910390f35b610460611e49565b60405161046d91906141ff565b60405180910390f35b61047e611f20565b60405161048b9190613e92565b60405180910390f35b6104ae60048036038101906104a99190613498565b61203a565b6040516104bb9190613e77565b60405180910390f35b60007f80ac58cd000000000000000000000000000000000000000000000000000000007bffffffffffffffffffffffffffffffffffffffffffffffffffffffff1916827bffffffffffffffffffffffffffffffffffffffffffffffffffffffff1916148061058f57507f5b5e139f000000000000000000000000000000000000000000000000000000007bffffffffffffffffffffffffffffffffffffffffffffffffffffffff1916827bffffffffffffffffffffffffffffffffffffffffffffffffffffffff1916145b8061059f575061059e826120e4565b5b9050919050565b6060600080546105b5906145af565b80601f01602080910402602001604051908101604052809291908181526020018280546105e1906145af565b801561062e5780601f106106035761010080835404028352916020019161062e565b820191906000526020600020905b81548152906001019060200180831161061157829003601f168201915b5050505050905090565b60006106438261214e565b610682576040517f08c379a000000000000000000000000000000000000000000000000000000000815260040161067990614054565b60405180910390fd5b6004600083815260200190815260200160002060009054906101000a900473ffffffffffffffffffffffffffffffffffffffff169050919050565b60606020805480602002602001604051908101604052809291908181526020016000905b8282101561078d578382906000526020600020018054610700906145af565b80601f016020809104026020016040519081016040528092919081815260200182805461072c906145af565b80156107795780601f1061074e57610100808354040283529160200191610779565b820191906000526020600020905b81548152906001019060200180831161075c57829003601f168201915b5050505050815260200190600101906106e1565b50505050905090565b60006107a182611073565b90508073ffffffffffffffffffffffffffffffffffffffff168373ffffffffffffffffffffffffffffffffffffffff161415610812576040517f08c379a000000000000000000000000000000000000000000000000000000000815260040161080990614094565b60405180910390fd5b8073ffffffffffffffffffffffffffffffffffffffff166108316121ba565b73ffffffffffffffffffffffffffffffffffffffff161480610860575061085f8161085a6121ba565b61203a565b5b61089f576040517f08c379a000000000000000000000000000000000000000000000000000000000815260040161089690613f94565b60405180910390fd5b6108a983836121c2565b505050565b6000600860003373ffffffffffffffffffffffffffffffffffffffff1673ffffffffffffffffffffffffffffffffffffffff1681526020019081526020016000205411610930576040517f08c379a000000000000000000000000000000000000000000000000000000000815260040161092790614074565b60405180910390fd5b60001515600a60003373ffffffffffffffffffffffffffffffffffffffff1673ffffffffffffffffffffffffffffffffffffffff16815260200190815260200160002060009054906101000a900460ff161515146109c3576040517f08c379a00000000000000000000000000000000000000000000000000000000081526004016109ba90614134565b60405180910390fd5b60008114156109f3576109e56001601b6000015461227b90919063ffffffff16565b601b60000181905550610af2565b6001811415610a2357610a156001601b6001015461227b90919063ffffffff16565b601b60010181905550610af1565b6002811415610a5357610a456001601b6002015461227b90919063ffffffff16565b601b60020181905550610af0565b6003811415610a8357610a756001601b6003015461227b90919063ffffffff16565b601b60030181905550610aef565b6004811415610ab357610aa56001601b6004015461227b90919063ffffffff16565b601b60040181905550610aee565b6040517f08c379a0000000000000000000000000000000000000000000000000000000008152600401610ae5906140f4565b60405180910390fd5b5b5b5b5b6001600a60003373ffffffffffffffffffffffffffffffffffffffff1673ffffffffffffffffffffffffffffffffffffffff16815260200190815260200160002060006101000a81548160ff02191690831515021790555050565b6000600860003373ffffffffffffffffffffffffffffffffffffffff1673ffffffffffffffffffffffffffffffffffffffff1681526020019081526020016000205411610bcf576040517f08c379a0000000000000000000000000000000000000000000000000000000008152600401610bc690614074565b60405180910390fd5b60011515600960003373ffffffffffffffffffffffffffffffffffffffff1673ffffffffffffffffffffffffffffffffffffffff16815260200190815260200160002060009054906101000a900460ff16151514610c62576040517f08c379a0000000000000000000000000000000000000000000000000000000008152600401610c5990614114565b60405180910390fd5b6000600860008373ffffffffffffffffffffffffffffffffffffffff1673ffffffffffffffffffffffffffffffffffffffff1681526020019081526020016000205411610ce4576040517f08c379a0000000000000000000000000000000000000000000000000000000008152600401610cdb90613f14565b60405180910390fd5b601773__$21d100ff33a0e53470d1c8e2694f76704f$__63aeed312e9091336040518363ffffffff1660e01b8152600401610d2092919061416f565b60006040518083038186803b158015610d3857600080fd5b505af4158015610d4c573d6000803e3d6000fd5b505050506000600960003373ffffffffffffffffffffffffffffffffffffffff1673ffffffffffffffffffffffffffffffffffffffff16815260200190815260200160002060006101000a81548160ff02191690831515021790555060206000610db69190613132565b60005b601773__$21d100ff33a0e53470d1c8e2694f76704f$__638431d78d90916040518263ffffffff1660e01b8152600401610df39190614154565b60206040518083038186803b158015610e0b57600080fd5b505af4158015610e1f573d6000803e3d6000fd5b505050506040513d601f19601f82011682018060405250810190610e439190613713565b811015610fba576000601773__$21d100ff33a0e53470d1c8e2694f76704f$__631ccf75e49091846040518363ffffffff1660e01b8152600401610e889291906141d6565b60206040518083038186803b158015610ea057600080fd5b505af4158015610eb4573d6000803e3d6000fd5b505050506040513d601f19601f82011682018060405250810190610ed8919061346f565b90506020601773__$21d100ff33a0e53470d1c8e2694f76704f$__63522648959091846040518363ffffffff1660e01b8152600401610f1892919061416f565b60006040518083038186803b158015610f3057600080fd5b505af4158015610f44573d6000803e3d6000fd5b505050506040513d6000823e3d601f19601f82011682018060405250810190610f6d91906136a9565b908060018154018082558091505060019003906000526020600020016000909190919091509080519060200190610fa5929190613153565b50508080610fb290614612565b915050610db9565b50610fc3612291565b610fcc81612392565b50565b610fe0610fda6121ba565b82612494565b61101f576040517f08c379a0000000000000000000000000000000000000000000000000000000008152600401611016906140b4565b60405180910390fd5b61102a838383612572565b505050565b601b8060000154908060010154908060020154908060030154908060040154905085565b61106e83838360405180602001604052806000815250611902565b505050565b6000806002600084815260200190815260200160002060009054906101000a900473ffffffffffffffffffffffffffffffffffffffff169050600073ffffffffffffffffffffffffffffffffffffffff168173ffffffffffffffffffffffffffffffffffffffff16141561111c576040517f08c379a000000000000000000000000000000000000000000000000000000000815260040161111390613ff4565b60405180910390fd5b80915050919050565b60008073ffffffffffffffffffffffffffffffffffffffff168273ffffffffffffffffffffffffffffffffffffffff161415611196576040517f08c379a000000000000000000000000000000000000000000000000000000000815260040161118d90613fb4565b60405180910390fd5b600360008373ffffffffffffffffffffffffffffffffffffffff1673ffffffffffffffffffffffffffffffffffffffff168152602001908152602001600020549050919050565b6000600860003373ffffffffffffffffffffffffffffffffffffffff1673ffffffffffffffffffffffffffffffffffffffff168152602001908152602001600020541461125f576040517f08c379a000000000000000000000000000000000000000000000000000000000815260040161125690613fd4565b60405180910390fd5b600061126b60066127d9565b905061127733826127e7565b6040518060600160405280600081526020016000815260200160008152506007600083815260200190815260200160002060008201518160000155602082015181600101556040820151816002015590505080600860003373ffffffffffffffffffffffffffffffffffffffff1673ffffffffffffffffffffffffffffffffffffffff1681526020019081526020016000208190555061131760066120ce565b7f0ff8d95af74a8c072247e3c2b5e73ab929e2eb87e62682f83f5707bc5bc4a7593382604051611348929190613e2c565b60405180910390a150565b6000600860003373ffffffffffffffffffffffffffffffffffffffff1673ffffffffffffffffffffffffffffffffffffffff16815260200190815260200160002054116113d5576040517f08c379a00000000000000000000000000000000000000000000000000000000081526004016113cc90614074565b60405180910390fd5b60001515600960003373ffffffffffffffffffffffffffffffffffffffff1673ffffffffffffffffffffffffffffffffffffffff16815260200190815260200160002060009054906101000a900460ff16151514611468576040517f08c379a000000000000000000000000000000000000000000000000000000000815260040161145f90614014565b60405180910390fd5b601773__$21d100ff33a0e53470d1c8e2694f76704f$__6332f2c049909133846040518463ffffffff1660e01b81526004016114a693929190614198565b60006040518083038186803b1580156114be57600080fd5b505af41580156114d2573d6000803e3d6000fd5b505050506020601773__$21d100ff33a0e53470d1c8e2694f76704f$__63522648959091336040518363ffffffff1660e01b815260040161151492919061416f565b60006040518083038186803b15801561152c57600080fd5b505af4158015611540573d6000803e3d6000fd5b505050506040513d6000823e3d601f19601f8201168201806040525081019061156991906136a9565b9080600181540180825580915050600190039060005260206000200160009091909190915090805190602001906115a1929190613153565b506001600960003373ffffffffffffffffffffffffffffffffffffffff1673ffffffffffffffffffffffffffffffffffffffff16815260200190815260200160002060006101000a81548160ff021916908315150217905550602060006116089190613132565b60005b601773__$21d100ff33a0e53470d1c8e2694f76704f$__638431d78d90916040518263ffffffff1660e01b81526004016116459190614154565b60206040518083038186803b15801561165d57600080fd5b505af4158015611671573d6000803e3d6000fd5b505050506040513d601f19601f820116820180604052508101906116959190613713565b81101561180c576000601773__$21d100ff33a0e53470d1c8e2694f76704f$__631ccf75e49091846040518363ffffffff1660e01b81526004016116da9291906141d6565b60206040518083038186803b1580156116f257600080fd5b505af4158015611706573d6000803e3d6000fd5b505050506040513d601f19601f8201168201806040525081019061172a919061346f565b90506020601773__$21d100ff33a0e53470d1c8e2694f76704f$__63522648959091846040518363ffffffff1660e01b815260040161176a92919061416f565b60006040518083038186803b15801561178257600080fd5b505af4158015611796573d6000803e3d6000fd5b505050506040513d6000823e3d601f19601f820116820180604052508101906117bf91906136a9565b9080600181540180825580915050600190039060005260206000200160009091909190915090805190602001906117f7929190613153565b5050808061180490614612565b91505061160b565b5050565b60086020528060005260406000206000915090505481565b606060018054611837906145af565b80601f0160208091040260200160405190810160405280929190818152602001828054611863906145af565b80156118b05780601f10611885576101008083540402835291602001916118b0565b820191906000526020600020905b81548152906001019060200180831161189357829003601f168201915b5050505050905090565b60076020528060005260406000206000915090508060000154908060010154908060020154905083565b6118f66118ef6121ba565b8383612805565b5050565b600047905090565b61191361190d6121ba565b83612494565b611952576040517f08c379a0000000000000000000000000000000000000000000000000000000008152600401611949906140b4565b60405180910390fd5b61195e84848484612972565b50505050565b6000600860003373ffffffffffffffffffffffffffffffffffffffff1673ffffffffffffffffffffffffffffffffffffffff16815260200190815260200160002054116119e6576040517f08c379a00000000000000000000000000000000000000000000000000000000081526004016119dd90614074565b60405180910390fd5b60011515600960003373ffffffffffffffffffffffffffffffffffffffff1673ffffffffffffffffffffffffffffffffffffffff16815260200190815260200160002060009054906101000a900460ff16151514611a79576040517f08c379a0000000000000000000000000000000000000000000000000000000008152600401611a7090614114565b60405180910390fd5b601773__$21d100ff33a0e53470d1c8e2694f76704f$__63aeed312e9091336040518363ffffffff1660e01b8152600401611ab592919061416f565b60006040518083038186803b158015611acd57600080fd5b505af4158015611ae1573d6000803e3d6000fd5b505050506000600960003373ffffffffffffffffffffffffffffffffffffffff1673ffffffffffffffffffffffffffffffffffffffff16815260200190815260200160002060006101000a81548160ff02191690831515021790555060206000611b4b9190613132565b60005b601773__$21d100ff33a0e53470d1c8e2694f76704f$__638431d78d90916040518263ffffffff1660e01b8152600401611b889190614154565b60206040518083038186803b158015611ba057600080fd5b505af4158015611bb4573d6000803e3d6000fd5b505050506040513d601f19601f82011682018060405250810190611bd89190613713565b811015611d4f576000601773__$21d100ff33a0e53470d1c8e2694f76704f$__631ccf75e49091846040518363ffffffff1660e01b8152600401611c1d9291906141d6565b60206040518083038186803b158015611c3557600080fd5b505af4158015611c49573d6000803e3d6000fd5b505050506040513d601f19601f82011682018060405250810190611c6d919061346f565b90506020601773__$21d100ff33a0e53470d1c8e2694f76704f$__63522648959091846040518363ffffffff1660e01b8152600401611cad92919061416f565b60006040518083038186803b158015611cc557600080fd5b505af4158015611cd9573d6000803e3d6000fd5b505050506040513d6000823e3d601f19601f82011682018060405250810190611d0291906136a9565b908060018154018082558091505060019003906000526020600020016000909190919091509080519060200190611d3a929190613153565b50508080611d4790614612565b915050611b4e565b50565b6060600060076000848152602001908152602001600020604051806060016040529081600082015481526020016001820154815260200160028201548152505090506000611da382600001516129ce565b90506000611db483602001516129ce565b90506000611dc584604001516129ce565b90506000604051806060016040528060358152602001614e836035913990506000611e1482868686604051602001611e009493929190613d50565b604051602081830303815290604052612b7b565b9050600081604051602001611e299190613d2e565b604051602081830303815290604052905080975050505050505050919050565b611e516131d9565b6000600860003373ffffffffffffffffffffffffffffffffffffffff1673ffffffffffffffffffffffffffffffffffffffff1681526020019081526020016000205490506000811115611ee257600760008281526020019081526020016000206040518060600160405290816000820154815260200160018201548152602001600282015481525050915050611f1d565b6040517f08c379a0000000000000000000000000000000000000000000000000000000008152600401611f14906140d4565b60405180910390fd5b90565b60606000600860003373ffffffffffffffffffffffffffffffffffffffff1673ffffffffffffffffffffffffffffffffffffffff1681526020019081526020016000205411611fa4576040517f08c379a0000000000000000000000000000000000000000000000000000000008152600401611f9b90614074565b60405180910390fd5b601773__$21d100ff33a0e53470d1c8e2694f76704f$__63522648959091336040518363ffffffff1660e01b8152600401611fe092919061416f565b60006040518083038186803b158015611ff857600080fd5b505af415801561200c573d6000803e3d6000fd5b505050506040513d6000823e3d601f19601f8201168201806040525081019061203591906136a9565b905090565b6000600560008473ffffffffffffffffffffffffffffffffffffffff1673ffffffffffffffffffffffffffffffffffffffff16815260200190815260200160002060008373ffffffffffffffffffffffffffffffffffffffff1673ffffffffffffffffffffffffffffffffffffffff16815260200190815260200160002060009054906101000a900460ff16905092915050565b6001816000016000828254019250508190555050565b60007f01ffc9a7000000000000000000000000000000000000000000000000000000007bffffffffffffffffffffffffffffffffffffffffffffffffffffffff1916827bffffffffffffffffffffffffffffffffffffffffffffffffffffffff1916149050919050565b60008073ffffffffffffffffffffffffffffffffffffffff166002600084815260200190815260200160002060009054906101000a900473ffffffffffffffffffffffffffffffffffffffff1673ffffffffffffffffffffffffffffffffffffffff1614159050919050565b600033905090565b816004600083815260200190815260200160002060006101000a81548173ffffffffffffffffffffffffffffffffffffffff021916908373ffffffffffffffffffffffffffffffffffffffff160217905550808273ffffffffffffffffffffffffffffffffffffffff1661223583611073565b73ffffffffffffffffffffffffffffffffffffffff167f8c5be1e5ebec7d5bd14f71427d1e84f3dd0314c0f7b2291e5b200ac8c7c3b92560405160405180910390a45050565b6000818361228991906143e4565b905092915050565b6000600860003373ffffffffffffffffffffffffffffffffffffffff1673ffffffffffffffffffffffffffffffffffffffff1681526020019081526020016000205411612313576040517f08c379a000000000000000000000000000000000000000000000000000000000815260040161230a90614074565b60405180910390fd5b6000600860003373ffffffffffffffffffffffffffffffffffffffff1673ffffffffffffffffffffffffffffffffffffffff16815260200190815260200160002054905060006007600083815260200190815260200160002090506123866001826001015461227b90919063ffffffff16565b81600101819055505050565b6000600860003373ffffffffffffffffffffffffffffffffffffffff1673ffffffffffffffffffffffffffffffffffffffff1681526020019081526020016000205411612414576040517f08c379a000000000000000000000000000000000000000000000000000000000815260040161240b90614074565b60405180910390fd5b6000600860008373ffffffffffffffffffffffffffffffffffffffff1673ffffffffffffffffffffffffffffffffffffffff16815260200190815260200160002054905060006007600083815260200190815260200160002090506124876001826000015461227b90919063ffffffff16565b8160000181905550505050565b600061249f8261214e565b6124de576040517f08c379a00000000000000000000000000000000000000000000000000000000081526004016124d590613f74565b60405180910390fd5b60006124e983611073565b90508073ffffffffffffffffffffffffffffffffffffffff168473ffffffffffffffffffffffffffffffffffffffff16148061252b575061252a818561203a565b5b8061256957508373ffffffffffffffffffffffffffffffffffffffff1661255184610638565b73ffffffffffffffffffffffffffffffffffffffff16145b91505092915050565b8273ffffffffffffffffffffffffffffffffffffffff1661259282611073565b73ffffffffffffffffffffffffffffffffffffffff16146125e8576040517f08c379a00000000000000000000000000000000000000000000000000000000081526004016125df90613ed4565b60405180910390fd5b600073ffffffffffffffffffffffffffffffffffffffff168273ffffffffffffffffffffffffffffffffffffffff161415612658576040517f08c379a000000000000000000000000000000000000000000000000000000000815260040161264f90613f34565b60405180910390fd5b612663838383612d39565b61266e6000826121c2565b6001600360008573ffffffffffffffffffffffffffffffffffffffff1673ffffffffffffffffffffffffffffffffffffffff16815260200190815260200160002060008282546126be91906144c5565b925050819055506001600360008473ffffffffffffffffffffffffffffffffffffffff1673ffffffffffffffffffffffffffffffffffffffff168152602001908152602001600020600082825461271591906143e4565b92505081905550816002600083815260200190815260200160002060006101000a81548173ffffffffffffffffffffffffffffffffffffffff021916908373ffffffffffffffffffffffffffffffffffffffff160217905550808273ffffffffffffffffffffffffffffffffffffffff168473ffffffffffffffffffffffffffffffffffffffff167fddf252ad1be2c89b69c2b068fc378daa952ba7f163c4a11628f55a4df523b3ef60405160405180910390a46127d4838383612d3e565b505050565b600081600001549050919050565b612801828260405180602001604052806000815250612d43565b5050565b8173ffffffffffffffffffffffffffffffffffffffff168373ffffffffffffffffffffffffffffffffffffffff161415612874576040517f08c379a000000000000000000000000000000000000000000000000000000000815260040161286b90613f54565b60405180910390fd5b80600560008573ffffffffffffffffffffffffffffffffffffffff1673ffffffffffffffffffffffffffffffffffffffff16815260200190815260200160002060008473ffffffffffffffffffffffffffffffffffffffff1673ffffffffffffffffffffffffffffffffffffffff16815260200190815260200160002060006101000a81548160ff0219169083151502179055508173ffffffffffffffffffffffffffffffffffffffff168373ffffffffffffffffffffffffffffffffffffffff167f17307eab39ab6107e8899845ad3d59bd9653f200f220920489ca2b5937696c31836040516129659190613e77565b60405180910390a3505050565b61297d848484612572565b61298984848484612d9e565b6129c8576040517f08c379a00000000000000000000000000000000000000000000000000000000081526004016129bf90613eb4565b60405180910390fd5b50505050565b60606000821415612a16576040518060400160405280600181526020017f30000000000000000000000000000000000000000000000000000000000000008152509050612b76565b600082905060005b60008214612a48578080612a3190614612565b915050600a82612a41919061443a565b9150612a1e565b60008167ffffffffffffffff811115612a8a577f4e487b7100000000000000000000000000000000000000000000000000000000600052604160045260246000fd5b6040519080825280601f01601f191660200182016040528015612abc5781602001600182028036833780820191505090505b5090505b60008514612b6f57600182612ad591906144c5565b9150600a85612ae4919061465b565b6030612af091906143e4565b60f81b818381518110612b2c577f4e487b7100000000000000000000000000000000000000000000000000000000600052603260045260246000fd5b60200101907effffffffffffffffffffffffffffffffffffffffffffffffffffffffffffff1916908160001a905350600a85612b68919061443a565b9450612ac0565b8093505050505b919050565b60606000825190506000811415612ba45760405180602001604052806000815250915050612d34565b60006003600283612bb591906143e4565b612bbf919061443a565b6004612bcb919061446b565b90506000602082612bdc91906143e4565b67ffffffffffffffff811115612c1b577f4e487b7100000000000000000000000000000000000000000000000000000000600052604160045260246000fd5b6040519080825280601f01601f191660200182016040528015612c4d5781602001600182028036833780820191505090505b5090506000604051806060016040528060408152602001614e43604091399050600181016020830160005b86811015612cf15760038101905062ffffff818a015116603f8160121c168401518060081b905060ff603f83600c1c1686015116810190508060081b905060ff603f8360061c1686015116810190508060081b905060ff603f831686015116810190508060e01b90508084526004840193505050612c78565b506003860660018114612d0b5760028114612d1b57612d26565b613d3d60f01b6002830352612d26565b603d60f81b60018303525b508484525050819450505050505b919050565b505050565b505050565b612d4d8383612f35565b612d5a6000848484612d9e565b612d99576040517f08c379a0000000000000000000000000000000000000000000000000000000008152600401612d9090613eb4565b60405180910390fd5b505050565b6000612dbf8473ffffffffffffffffffffffffffffffffffffffff1661310f565b15612f28578373ffffffffffffffffffffffffffffffffffffffff1663150b7a02612de86121ba565b8786866040518563ffffffff1660e01b8152600401612e0a9493929190613de0565b602060405180830381600087803b158015612e2457600080fd5b505af1925050508015612e5557506040513d601f19601f82011682018060405250810190612e52919061363f565b60015b612ed8573d8060008114612e85576040519150601f19603f3d011682016040523d82523d6000602084013e612e8a565b606091505b50600081511415612ed0576040517f08c379a0000000000000000000000000000000000000000000000000000000008152600401612ec790613eb4565b60405180910390fd5b805181602001fd5b63150b7a0260e01b7bffffffffffffffffffffffffffffffffffffffffffffffffffffffff1916817bffffffffffffffffffffffffffffffffffffffffffffffffffffffff191614915050612f2d565b600190505b949350505050565b600073ffffffffffffffffffffffffffffffffffffffff168273ffffffffffffffffffffffffffffffffffffffff161415612fa5576040517f08c379a0000000000000000000000000000000000000000000000000000000008152600401612f9c90614034565b60405180910390fd5b612fae8161214e565b15612fee576040517f08c379a0000000000000000000000000000000000000000000000000000000008152600401612fe590613ef4565b60405180910390fd5b612ffa60008383612d39565b6001600360008473ffffffffffffffffffffffffffffffffffffffff1673ffffffffffffffffffffffffffffffffffffffff168152602001908152602001600020600082825461304a91906143e4565b92505081905550816002600083815260200190815260200160002060006101000a81548173ffffffffffffffffffffffffffffffffffffffff021916908373ffffffffffffffffffffffffffffffffffffffff160217905550808273ffffffffffffffffffffffffffffffffffffffff16600073ffffffffffffffffffffffffffffffffffffffff167fddf252ad1be2c89b69c2b068fc378daa952ba7f163c4a11628f55a4df523b3ef60405160405180910390a461310b60008383612d3e565b5050565b6000808273ffffffffffffffffffffffffffffffffffffffff163b119050919050565b508054600082559060005260206000209081019061315091906131fa565b50565b82805461315f906145af565b90600052602060002090601f01602090048101928261318157600085556131c8565b82601f1061319a57805160ff19168380011785556131c8565b828001600101855582156131c8579182015b828111156131c75782518255916020019190600101906131ac565b5b5090506131d5919061321e565b5090565b60405180606001604052806000815260200160008152602001600081525090565b5b8082111561321a5760008181613211919061323b565b506001016131fb565b5090565b5b8082111561323757600081600090555060010161321f565b5090565b508054613247906145af565b6000825580601f106132595750613278565b601f016020900490600052602060002090810190613277919061321e565b5b50565b600061328e613289846142e4565b6142bf565b9050828152602081018484840111156132a657600080fd5b6132b184828561456d565b509392505050565b60006132cc6132c784614315565b6142bf565b9050828152602081018484840111156132e457600080fd5b6132ef84828561456d565b509392505050565b600061330a61330584614315565b6142bf565b90508281526020810184848401111561332257600080fd5b61332d84828561457c565b509392505050565b60008135905061334481614de6565b92915050565b60008151905061335981614de6565b92915050565b60008135905061336e81614dfd565b92915050565b60008135905061338381614e14565b92915050565b60008151905061339881614e14565b92915050565b600082601f8301126133af57600080fd5b81356133bf84826020860161327b565b91505092915050565b600082601f8301126133d957600080fd5b81356133e98482602086016132b9565b91505092915050565b600082601f83011261340357600080fd5b81516134138482602086016132f7565b91505092915050565b60008135905061342b81614e2b565b92915050565b60008151905061344081614e2b565b92915050565b60006020828403121561345857600080fd5b600061346684828501613335565b91505092915050565b60006020828403121561348157600080fd5b600061348f8482850161334a565b91505092915050565b600080604083850312156134ab57600080fd5b60006134b985828601613335565b92505060206134ca85828601613335565b9150509250929050565b6000806000606084860312156134e957600080fd5b60006134f786828701613335565b935050602061350886828701613335565b92505060406135198682870161341c565b9150509250925092565b6000806000806080858703121561353957600080fd5b600061354787828801613335565b945050602061355887828801613335565b93505060406135698782880161341c565b925050606085013567ffffffffffffffff81111561358657600080fd5b6135928782880161339e565b91505092959194509250565b600080604083850312156135b157600080fd5b60006135bf85828601613335565b92505060206135d08582860161335f565b9150509250929050565b600080604083850312156135ed57600080fd5b60006135fb85828601613335565b925050602061360c8582860161341c565b9150509250929050565b60006020828403121561362857600080fd5b600061363684828501613374565b91505092915050565b60006020828403121561365157600080fd5b600061365f84828501613389565b91505092915050565b60006020828403121561367a57600080fd5b600082013567ffffffffffffffff81111561369457600080fd5b6136a0848285016133c8565b91505092915050565b6000602082840312156136bb57600080fd5b600082015167ffffffffffffffff8111156136d557600080fd5b6136e1848285016133f2565b91505092915050565b6000602082840312156136fc57600080fd5b600061370a8482850161341c565b91505092915050565b60006020828403121561372557600080fd5b600061373384828501613431565b91505092915050565b6000613748838361382b565b905092915050565b613759816144f9565b82525050565b613768816144f9565b82525050565b600061377982614356565b6137838185614384565b93508360208202850161379585614346565b8060005b858110156137d157848403895281516137b2858261373c565b94506137bd83614377565b925060208a01995050600181019050613799565b50829750879550505050505092915050565b6137ec8161450b565b82525050565b60006137fd82614361565b6138078185614395565b935061381781856020860161457c565b61382081614748565b840191505092915050565b60006138368261436c565b61384081856143a6565b935061385081856020860161457c565b61385981614748565b840191505092915050565b600061386f8261436c565b61387981856143b7565b935061388981856020860161457c565b61389281614748565b840191505092915050565b60006138a88261436c565b6138b281856143c8565b93506138c281856020860161457c565b6138cb81614748565b840191505092915050565b60006138e18261436c565b6138eb81856143d9565b93506138fb81856020860161457c565b80840191505092915050565b6000613914602a836143d9565b915061391f82614759565b602a82019050919050565b60006139376032836143b7565b9150613942826147a8565b604082019050919050565b600061395a603c836143d9565b9150613965826147f7565b603c82019050919050565b600061397d6025836143b7565b915061398882614846565b604082019050919050565b60006139a0601c836143b7565b91506139ab82614895565b602082019050919050565b60006139c36018836143b7565b91506139ce826148be565b602082019050919050565b60006139e66024836143b7565b91506139f1826148e7565b604082019050919050565b6000613a096019836143b7565b9150613a1482614936565b602082019050919050565b6000613a2c602c836143b7565b9150613a378261495f565b604082019050919050565b6000613a4f6038836143b7565b9150613a5a826149ae565b604082019050919050565b6000613a72602a836143b7565b9150613a7d826149fd565b604082019050919050565b6000613a956020836143b7565b9150613aa082614a4c565b602082019050919050565b6000613ab86029836143b7565b9150613ac382614a75565b604082019050919050565b6000613adb6013836143b7565b9150613ae682614ac4565b602082019050919050565b6000613afe6004836143d9565b9150613b0982614aed565b600482019050919050565b6000613b216020836143b7565b9150613b2c82614b16565b602082019050919050565b6000613b44602c836143b7565b9150613b4f82614b3f565b604082019050919050565b6000613b676014836143b7565b9150613b7282614b8e565b602082019050919050565b6000613b8a6021836143b7565b9150613b9582614bb7565b604082019050919050565b6000613bad601d836143d9565b9150613bb882614c06565b601d82019050919050565b6000613bd06031836143b7565b9150613bdb82614c2f565b604082019050919050565b6000613bf36052836143d9565b9150613bfe82614c7e565b605282019050919050565b6000613c166013836143b7565b9150613c2182614cf3565b602082019050919050565b6000613c39602f836143d9565b9150613c4482614d1c565b602f82019050919050565b6000613c5c6017836143b7565b9150613c6782614d6b565b602082019050919050565b6000613c7f6016836143b7565b9150613c8a82614d94565b602082019050919050565b6000613ca26016836143b7565b9150613cad82614dbd565b602082019050919050565b8082525050565b606082016000820151613cd56000850182613d01565b506020820151613ce86020850182613d01565b506040820151613cfb6040850182613d01565b50505050565b613d0a81614563565b82525050565b613d1981614563565b82525050565b613d2881614563565b82525050565b6000613d3982613ba0565b9150613d4582846138d6565b915081905092915050565b6000613d5b82613be6565b9150613d6782876138d6565b9150613d728261394d565b9150613d7e82866138d6565b9150613d8982613907565b9150613d9582856138d6565b9150613da082613c2c565b9150613dac82846138d6565b9150613db782613af1565b915081905095945050505050565b6000602082019050613dda6000830184613750565b92915050565b6000608082019050613df56000830187613750565b613e026020830186613750565b613e0f6040830185613d10565b8181036060830152613e2181846137f2565b905095945050505050565b6000604082019050613e416000830185613750565b613e4e6020830184613d10565b9392505050565b60006020820190508181036000830152613e6f818461376e565b905092915050565b6000602082019050613e8c60008301846137e3565b92915050565b60006020820190508181036000830152613eac8184613864565b905092915050565b60006020820190508181036000830152613ecd8161392a565b9050919050565b60006020820190508181036000830152613eed81613970565b9050919050565b60006020820190508181036000830152613f0d81613993565b9050919050565b60006020820190508181036000830152613f2d816139b6565b9050919050565b60006020820190508181036000830152613f4d816139d9565b9050919050565b60006020820190508181036000830152613f6d816139fc565b9050919050565b60006020820190508181036000830152613f8d81613a1f565b9050919050565b60006020820190508181036000830152613fad81613a42565b9050919050565b60006020820190508181036000830152613fcd81613a65565b9050919050565b60006020820190508181036000830152613fed81613a88565b9050919050565b6000602082019050818103600083015261400d81613aab565b9050919050565b6000602082019050818103600083015261402d81613ace565b9050919050565b6000602082019050818103600083015261404d81613b14565b9050919050565b6000602082019050818103600083015261406d81613b37565b9050919050565b6000602082019050818103600083015261408d81613b5a565b9050919050565b600060208201905081810360008301526140ad81613b7d565b9050919050565b600060208201905081810360008301526140cd81613bc3565b9050919050565b600060208201905081810360008301526140ed81613c09565b9050919050565b6000602082019050818103600083015261410d81613c4f565b9050919050565b6000602082019050818103600083015261412d81613c72565b9050919050565b6000602082019050818103600083015261414d81613c95565b9050919050565b60006020820190506141696000830184613cb8565b92915050565b60006040820190506141846000830185613cb8565b614191602083018461375f565b9392505050565b60006060820190506141ad6000830186613cb8565b6141ba602083018561375f565b81810360408301526141cc818461389d565b9050949350505050565b60006040820190506141eb6000830185613cb8565b6141f86020830184613d1f565b9392505050565b60006060820190506142146000830184613cbf565b92915050565b600060208201905061422f6000830184613d10565b92915050565b600060608201905061424a6000830186613d10565b6142576020830185613d10565b6142646040830184613d10565b949350505050565b600060a0820190506142816000830188613d10565b61428e6020830187613d10565b61429b6040830186613d10565b6142a86060830185613d10565b6142b56080830184613d10565b9695505050505050565b60006142c96142da565b90506142d582826145e1565b919050565b6000604051905090565b600067ffffffffffffffff8211156142ff576142fe614719565b5b61430882614748565b9050602081019050919050565b600067ffffffffffffffff8211156143305761432f614719565b5b61433982614748565b9050602081019050919050565b6000819050602082019050919050565b600081519050919050565b600081519050919050565b600081519050919050565b6000602082019050919050565b600082825260208201905092915050565b600082825260208201905092915050565b600082825260208201905092915050565b600082825260208201905092915050565b600082825260208201905092915050565b600081905092915050565b60006143ef82614563565b91506143fa83614563565b9250827fffffffffffffffffffffffffffffffffffffffffffffffffffffffffffffffff0382111561442f5761442e61468c565b5b828201905092915050565b600061444582614563565b915061445083614563565b9250826144605761445f6146bb565b5b828204905092915050565b600061447682614563565b915061448183614563565b9250817fffffffffffffffffffffffffffffffffffffffffffffffffffffffffffffffff04831182151516156144ba576144b961468c565b5b828202905092915050565b60006144d082614563565b91506144db83614563565b9250828210156144ee576144ed61468c565b5b828203905092915050565b600061450482614543565b9050919050565b60008115159050919050565b60007fffffffff0000000000000000000000000000000000000000000000000000000082169050919050565b600073ffffffffffffffffffffffffffffffffffffffff82169050919050565b6000819050919050565b82818337600083830152505050565b60005b8381101561459a57808201518184015260208101905061457f565b838111156145a9576000848401525b50505050565b600060028204905060018216806145c757607f821691505b602082108114156145db576145da6146ea565b5b50919050565b6145ea82614748565b810181811067ffffffffffffffff8211171561460957614608614719565b5b80604052505050565b600061461d82614563565b91507fffffffffffffffffffffffffffffffffffffffffffffffffffffffffffffffff8214156146505761464f61468c565b5b600182019050919050565b600061466682614563565b915061467183614563565b925082614681576146806146bb565b5b828206905092915050565b7f4e487b7100000000000000000000000000000000000000000000000000000000600052601160045260246000fd5b7f4e487b7100000000000000000000000000000000000000000000000000000000600052601260045260246000fd5b7f4e487b7100000000000000000000000000000000000000000000000000000000600052602260045260246000fd5b7f4e487b7100000000000000000000000000000000000000000000000000000000600052604160045260246000fd5b6000601f19601f8301169050919050565b7f7d2c207b202274726169745f74797065223a2022466f756e642048656c70222c60008201527f202276616c7565223a2000000000000000000000000000000000000000000000602082015250565b7f4552433732313a207472616e7366657220746f206e6f6e20455243373231526560008201527f63656976657220696d706c656d656e7465720000000000000000000000000000602082015250565b7f222c2261747472696275746573223a205b207b202274726169745f747970652260008201527f3a202248656c70657220546f6b656e73222c202276616c7565223a2000000000602082015250565b7f4552433732313a207472616e736665722066726f6d20696e636f72726563742060008201527f6f776e6572000000000000000000000000000000000000000000000000000000602082015250565b7f4552433732313a20746f6b656e20616c7265616479206d696e74656400000000600082015250565b7f5468652075736572206973206e6f742061206d656d6265720000000000000000600082015250565b7f4552433732313a207472616e7366657220746f20746865207a65726f2061646460008201527f7265737300000000000000000000000000000000000000000000000000000000602082015250565b7f4552433732313a20617070726f766520746f2063616c6c657200000000000000600082015250565b7f4552433732313a206f70657261746f7220717565727920666f72206e6f6e657860008201527f697374656e7420746f6b656e0000000000000000000000000000000000000000602082015250565b7f4552433732313a20617070726f76652063616c6c6572206973206e6f74206f7760008201527f6e6572206e6f7220617070726f76656420666f7220616c6c0000000000000000602082015250565b7f4552433732313a2062616c616e636520717565727920666f7220746865207a6560008201527f726f206164647265737300000000000000000000000000000000000000000000602082015250565b7f4f6e6c79206f6e65206e667420706572206164647265737320616c6c6f776564600082015250565b7f4552433732313a206f776e657220717565727920666f72206e6f6e657869737460008201527f656e7420746f6b656e0000000000000000000000000000000000000000000000602082015250565b7f596f7520616c7265616479206861766520616400000000000000000000000000600082015250565b7f7d205d7d00000000000000000000000000000000000000000000000000000000600082015250565b7f4552433732313a206d696e7420746f20746865207a65726f2061646472657373600082015250565b7f4552433732313a20617070726f76656420717565727920666f72206e6f6e657860008201527f697374656e7420746f6b656e0000000000000000000000000000000000000000602082015250565b7f596f7520617265206e6f742061206d656d626572000000000000000000000000600082015250565b7f4552433732313a20617070726f76616c20746f2063757272656e74206f776e6560008201527f7200000000000000000000000000000000000000000000000000000000000000602082015250565b7f646174613a6170706c69636174696f6e2f6a736f6e3b6261736536342c000000600082015250565b7f4552433732313a207472616e736665722063616c6c6572206973206e6f74206f60008201527f776e6572206e6f7220617070726f766564000000000000000000000000000000602082015250565b7f7b226e616d65223a2022576f6c6f6e20332e30204d656d626572222c2022646560008201527f736372697074696f6e223a2022576f6c6f6e20332e30204d656d62657273686960208201527f70204e4654222c2022696d616765223a20220000000000000000000000000000604082015250565b7f4e6f206d656d6265727368697020666f756e6400000000000000000000000000600082015250565b7f7d2c207b202274726169745f74797065223a2022546f74616c20537570706f7260008201527f746564222c202276616c7565223a200000000000000000000000000000000000602082015250565b7f496e636f727265637420766f74696e67206e756d626572000000000000000000600082015250565b7f596f7520646f6e27742068617665206861766520616400000000000000000000600082015250565b7f596f75206861766520616c726561647920766f74656400000000000000000000600082015250565b614def816144f9565b8114614dfa57600080fd5b50565b614e068161450b565b8114614e1157600080fd5b50565b614e1d81614517565b8114614e2857600080fd5b50565b614e3481614563565b8114614e3f57600080fd5b5056fe4142434445464748494a4b4c4d4e4f505152535455565758595a6162636465666768696a6b6c6d6e6f707172737475767778797a303132333435363738392b2f697066733a2f2f516d637a7a77535848514d3873636162473652656e76325a4d557a623642756a79783736467632336251536f6a34a26469706673582212209bf74b34593857ea4ac90aadf990a41aa488d158ffcf27ec6fc07bba7eb185a364736f6c63430008010033",
  "linkReferences": {
    "contracts/libraries/IterableMappingAds.sol": {
      "IterableMappingAds": [
        {
          "length": 20,
          "start": 3812
        },
        {
          "length": 20,
          "start": 4025
        },
        {
          "length": 20,
          "start": 4172
        },
        {
          "length": 20,
          "start": 4316
        },
        {
          "length": 20,
          "start": 5736
        },
        {
          "length": 20,
          "start": 5848
        },
        {
          "length": 20,
          "start": 6155
        },
        {
          "length": 20,
          "start": 6302
        },
        {
          "length": 20,
          "start": 6446
        },
        {
          "length": 20,
          "start": 7289
        },
        {
          "length": 20,
          "start": 7502
        },
        {
          "length": 20,
          "start": 7649
        },
        {
          "length": 20,
          "start": 7793
        },
        {
          "length": 20,
          "start": 8612
        }
      ]
    }
  },
  "deployedLinkReferences": {
    "contracts/libraries/IterableMappingAds.sol": {
      "IterableMappingAds": [
        {
          "length": 20,
          "start": 3304
        },
        {
          "length": 20,
          "start": 3517
        },
        {
          "length": 20,
          "start": 3664
        },
        {
          "length": 20,
          "start": 3808
        },
        {
          "length": 20,
          "start": 5228
        },
        {
          "length": 20,
          "start": 5340
        },
        {
          "length": 20,
          "start": 5647
        },
        {
          "length": 20,
          "start": 5794
        },
        {
          "length": 20,
          "start": 5938
        },
        {
          "length": 20,
          "start": 6781
        },
        {
          "length": 20,
          "start": 6994
        },
        {
          "length": 20,
          "start": 7141
        },
        {
          "length": 20,
          "start": 7285
        },
        {
          "length": 20,
          "start": 8104
        }
      ]
    }
  }
}